Archive member included because of file (symbol)

/Users/niall/gcc-arm-none-eabi-4_9-2014q4/bin/../lib/gcc/arm-none-eabi/4.9.3/../../../../arm-none-eabi/lib/armv7-m/libg_nano.a(lib_a-ctype_.o)
                              ./system/src/newlib/_syscalls.o (__ctype_ptr__)
/Users/niall/gcc-arm-none-eabi-4_9-2014q4/bin/../lib/gcc/arm-none-eabi/4.9.3/../../../../arm-none-eabi/lib/armv7-m/libg_nano.a(lib_a-errno.o)
                              ./system/src/newlib/_sbrk.o (__errno)
/Users/niall/gcc-arm-none-eabi-4_9-2014q4/bin/../lib/gcc/arm-none-eabi/4.9.3/../../../../arm-none-eabi/lib/armv7-m/libg_nano.a(lib_a-findfp.o)
                              ./system/src/newlib/_syscalls.o (__sinit)
/Users/niall/gcc-arm-none-eabi-4_9-2014q4/bin/../lib/gcc/arm-none-eabi/4.9.3/../../../../arm-none-eabi/lib/armv7-m/libg_nano.a(lib_a-fwalk.o)
                              /Users/niall/gcc-arm-none-eabi-4_9-2014q4/bin/../lib/gcc/arm-none-eabi/4.9.3/../../../../arm-none-eabi/lib/armv7-m/libg_nano.a(lib_a-findfp.o) (_fwalk)
/Users/niall/gcc-arm-none-eabi-4_9-2014q4/bin/../lib/gcc/arm-none-eabi/4.9.3/../../../../arm-none-eabi/lib/armv7-m/libg_nano.a(lib_a-fwrite.o)
                              ./src/main.o (fwrite)
/Users/niall/gcc-arm-none-eabi-4_9-2014q4/bin/../lib/gcc/arm-none-eabi/4.9.3/../../../../arm-none-eabi/lib/armv7-m/libg_nano.a(lib_a-impure.o)
                              /Users/niall/gcc-arm-none-eabi-4_9-2014q4/bin/../lib/gcc/arm-none-eabi/4.9.3/../../../../arm-none-eabi/lib/armv7-m/libg_nano.a(lib_a-findfp.o) (_global_impure_ptr)
/Users/niall/gcc-arm-none-eabi-4_9-2014q4/bin/../lib/gcc/arm-none-eabi/4.9.3/../../../../arm-none-eabi/lib/armv7-m/libg_nano.a(lib_a-memset.o)
                              ./system/src/newlib/_syscalls.o (memset)
/Users/niall/gcc-arm-none-eabi-4_9-2014q4/bin/../lib/gcc/arm-none-eabi/4.9.3/../../../../arm-none-eabi/lib/armv7-m/libg_nano.a(lib_a-nano-mallocr.o)
                              /Users/niall/gcc-arm-none-eabi-4_9-2014q4/bin/../lib/gcc/arm-none-eabi/4.9.3/../../../../arm-none-eabi/lib/armv7-m/libg_nano.a(lib_a-findfp.o) (_malloc_r)
/Users/niall/gcc-arm-none-eabi-4_9-2014q4/bin/../lib/gcc/arm-none-eabi/4.9.3/../../../../arm-none-eabi/lib/armv7-m/libg_nano.a(lib_a-puts.o)
                              ./src/main.o (puts)
/Users/niall/gcc-arm-none-eabi-4_9-2014q4/bin/../lib/gcc/arm-none-eabi/4.9.3/../../../../arm-none-eabi/lib/armv7-m/libg_nano.a(lib_a-sbrkr.o)
                              /Users/niall/gcc-arm-none-eabi-4_9-2014q4/bin/../lib/gcc/arm-none-eabi/4.9.3/../../../../arm-none-eabi/lib/armv7-m/libg_nano.a(lib_a-nano-mallocr.o) (_sbrk_r)
/Users/niall/gcc-arm-none-eabi-4_9-2014q4/bin/../lib/gcc/arm-none-eabi/4.9.3/../../../../arm-none-eabi/lib/armv7-m/libg_nano.a(lib_a-stdio.o)
                              /Users/niall/gcc-arm-none-eabi-4_9-2014q4/bin/../lib/gcc/arm-none-eabi/4.9.3/../../../../arm-none-eabi/lib/armv7-m/libg_nano.a(lib_a-findfp.o) (__sread)
/Users/niall/gcc-arm-none-eabi-4_9-2014q4/bin/../lib/gcc/arm-none-eabi/4.9.3/../../../../arm-none-eabi/lib/armv7-m/libg_nano.a(lib_a-strlen.o)
                              ./system/src/newlib/_syscalls.o (strlen)
/Users/niall/gcc-arm-none-eabi-4_9-2014q4/bin/../lib/gcc/arm-none-eabi/4.9.3/../../../../arm-none-eabi/lib/armv7-m/libg_nano.a(lib_a-strncpy.o)
                              ./system/src/newlib/_syscalls.o (strncpy)
/Users/niall/gcc-arm-none-eabi-4_9-2014q4/bin/../lib/gcc/arm-none-eabi/4.9.3/../../../../arm-none-eabi/lib/armv7-m/libg_nano.a(lib_a-vsnprintf.o)
                              ./system/src/diag/Trace.o (vsnprintf)
/Users/niall/gcc-arm-none-eabi-4_9-2014q4/bin/../lib/gcc/arm-none-eabi/4.9.3/../../../../arm-none-eabi/lib/armv7-m/libg_nano.a(lib_a-wbuf.o)
                              /Users/niall/gcc-arm-none-eabi-4_9-2014q4/bin/../lib/gcc/arm-none-eabi/4.9.3/../../../../arm-none-eabi/lib/armv7-m/libg_nano.a(lib_a-fwrite.o) (__swbuf_r)
/Users/niall/gcc-arm-none-eabi-4_9-2014q4/bin/../lib/gcc/arm-none-eabi/4.9.3/../../../../arm-none-eabi/lib/armv7-m/libg_nano.a(lib_a-writer.o)
                              /Users/niall/gcc-arm-none-eabi-4_9-2014q4/bin/../lib/gcc/arm-none-eabi/4.9.3/../../../../arm-none-eabi/lib/armv7-m/libg_nano.a(lib_a-stdio.o) (_write_r)
/Users/niall/gcc-arm-none-eabi-4_9-2014q4/bin/../lib/gcc/arm-none-eabi/4.9.3/../../../../arm-none-eabi/lib/armv7-m/libg_nano.a(lib_a-wsetup.o)
                              /Users/niall/gcc-arm-none-eabi-4_9-2014q4/bin/../lib/gcc/arm-none-eabi/4.9.3/../../../../arm-none-eabi/lib/armv7-m/libg_nano.a(lib_a-fwrite.o) (__swsetup_r)
/Users/niall/gcc-arm-none-eabi-4_9-2014q4/bin/../lib/gcc/arm-none-eabi/4.9.3/../../../../arm-none-eabi/lib/armv7-m/libg_nano.a(lib_a-closer.o)
                              /Users/niall/gcc-arm-none-eabi-4_9-2014q4/bin/../lib/gcc/arm-none-eabi/4.9.3/../../../../arm-none-eabi/lib/armv7-m/libg_nano.a(lib_a-stdio.o) (_close_r)
/Users/niall/gcc-arm-none-eabi-4_9-2014q4/bin/../lib/gcc/arm-none-eabi/4.9.3/../../../../arm-none-eabi/lib/armv7-m/libg_nano.a(lib_a-fflush.o)
                              /Users/niall/gcc-arm-none-eabi-4_9-2014q4/bin/../lib/gcc/arm-none-eabi/4.9.3/../../../../arm-none-eabi/lib/armv7-m/libg_nano.a(lib_a-findfp.o) (_fflush_r)
/Users/niall/gcc-arm-none-eabi-4_9-2014q4/bin/../lib/gcc/arm-none-eabi/4.9.3/../../../../arm-none-eabi/lib/armv7-m/libg_nano.a(lib_a-lseekr.o)
                              /Users/niall/gcc-arm-none-eabi-4_9-2014q4/bin/../lib/gcc/arm-none-eabi/4.9.3/../../../../arm-none-eabi/lib/armv7-m/libg_nano.a(lib_a-stdio.o) (_lseek_r)
/Users/niall/gcc-arm-none-eabi-4_9-2014q4/bin/../lib/gcc/arm-none-eabi/4.9.3/../../../../arm-none-eabi/lib/armv7-m/libg_nano.a(lib_a-makebuf.o)
                              /Users/niall/gcc-arm-none-eabi-4_9-2014q4/bin/../lib/gcc/arm-none-eabi/4.9.3/../../../../arm-none-eabi/lib/armv7-m/libg_nano.a(lib_a-wsetup.o) (__smakebuf_r)
/Users/niall/gcc-arm-none-eabi-4_9-2014q4/bin/../lib/gcc/arm-none-eabi/4.9.3/../../../../arm-none-eabi/lib/armv7-m/libg_nano.a(lib_a-nano-freer.o)
                              /Users/niall/gcc-arm-none-eabi-4_9-2014q4/bin/../lib/gcc/arm-none-eabi/4.9.3/../../../../arm-none-eabi/lib/armv7-m/libg_nano.a(lib_a-wsetup.o) (_free_r)
/Users/niall/gcc-arm-none-eabi-4_9-2014q4/bin/../lib/gcc/arm-none-eabi/4.9.3/../../../../arm-none-eabi/lib/armv7-m/libg_nano.a(lib_a-nano-svfprintf.o)
                              /Users/niall/gcc-arm-none-eabi-4_9-2014q4/bin/../lib/gcc/arm-none-eabi/4.9.3/../../../../arm-none-eabi/lib/armv7-m/libg_nano.a(lib_a-vsnprintf.o) (_svfprintf_r)
/Users/niall/gcc-arm-none-eabi-4_9-2014q4/bin/../lib/gcc/arm-none-eabi/4.9.3/../../../../arm-none-eabi/lib/armv7-m/libg_nano.a(lib_a-nano-vfprintf_i.o)
                              /Users/niall/gcc-arm-none-eabi-4_9-2014q4/bin/../lib/gcc/arm-none-eabi/4.9.3/../../../../arm-none-eabi/lib/armv7-m/libg_nano.a(lib_a-nano-svfprintf.o) (_printf_i)
/Users/niall/gcc-arm-none-eabi-4_9-2014q4/bin/../lib/gcc/arm-none-eabi/4.9.3/../../../../arm-none-eabi/lib/armv7-m/libg_nano.a(lib_a-readr.o)
                              /Users/niall/gcc-arm-none-eabi-4_9-2014q4/bin/../lib/gcc/arm-none-eabi/4.9.3/../../../../arm-none-eabi/lib/armv7-m/libg_nano.a(lib_a-stdio.o) (_read_r)
/Users/niall/gcc-arm-none-eabi-4_9-2014q4/bin/../lib/gcc/arm-none-eabi/4.9.3/../../../../arm-none-eabi/lib/armv7-m/libg_nano.a(lib_a-fstatr.o)
                              /Users/niall/gcc-arm-none-eabi-4_9-2014q4/bin/../lib/gcc/arm-none-eabi/4.9.3/../../../../arm-none-eabi/lib/armv7-m/libg_nano.a(lib_a-makebuf.o) (_fstat_r)
/Users/niall/gcc-arm-none-eabi-4_9-2014q4/bin/../lib/gcc/arm-none-eabi/4.9.3/../../../../arm-none-eabi/lib/armv7-m/libg_nano.a(lib_a-isattyr.o)
                              /Users/niall/gcc-arm-none-eabi-4_9-2014q4/bin/../lib/gcc/arm-none-eabi/4.9.3/../../../../arm-none-eabi/lib/armv7-m/libg_nano.a(lib_a-makebuf.o) (_isatty_r)
/Users/niall/gcc-arm-none-eabi-4_9-2014q4/bin/../lib/gcc/arm-none-eabi/4.9.3/../../../../arm-none-eabi/lib/armv7-m/libg_nano.a(lib_a-memchr.o)
                              /Users/niall/gcc-arm-none-eabi-4_9-2014q4/bin/../lib/gcc/arm-none-eabi/4.9.3/../../../../arm-none-eabi/lib/armv7-m/libg_nano.a(lib_a-nano-svfprintf.o) (memchr)
/Users/niall/gcc-arm-none-eabi-4_9-2014q4/bin/../lib/gcc/arm-none-eabi/4.9.3/../../../../arm-none-eabi/lib/armv7-m/libg_nano.a(lib_a-memcpy.o)
                              /Users/niall/gcc-arm-none-eabi-4_9-2014q4/bin/../lib/gcc/arm-none-eabi/4.9.3/../../../../arm-none-eabi/lib/armv7-m/libg_nano.a(lib_a-nano-svfprintf.o) (memcpy)
/Users/niall/gcc-arm-none-eabi-4_9-2014q4/bin/../lib/gcc/arm-none-eabi/4.9.3/../../../../arm-none-eabi/lib/armv7-m/libg_nano.a(lib_a-memmove.o)
                              /Users/niall/gcc-arm-none-eabi-4_9-2014q4/bin/../lib/gcc/arm-none-eabi/4.9.3/../../../../arm-none-eabi/lib/armv7-m/libg_nano.a(lib_a-nano-svfprintf.o) (memmove)
/Users/niall/gcc-arm-none-eabi-4_9-2014q4/bin/../lib/gcc/arm-none-eabi/4.9.3/../../../../arm-none-eabi/lib/armv7-m/libg_nano.a(lib_a-nano-reallocr.o)
                              /Users/niall/gcc-arm-none-eabi-4_9-2014q4/bin/../lib/gcc/arm-none-eabi/4.9.3/../../../../arm-none-eabi/lib/armv7-m/libg_nano.a(lib_a-nano-svfprintf.o) (_realloc_r)
/Users/niall/gcc-arm-none-eabi-4_9-2014q4/bin/../lib/gcc/arm-none-eabi/4.9.3/../../../../arm-none-eabi/lib/armv7-m/libg_nano.a(lib_a-nano-msizer.o)
                              /Users/niall/gcc-arm-none-eabi-4_9-2014q4/bin/../lib/gcc/arm-none-eabi/4.9.3/../../../../arm-none-eabi/lib/armv7-m/libg_nano.a(lib_a-nano-reallocr.o) (_malloc_usable_size_r)

Allocating common symbols
Common symbol       size              file

errno               0x4               ./system/src/newlib/_syscalls.o

Discarded input sections

 .group         0x0000000000000000        0x8 ./system/src/stm32f1-stdperiph/misc.o
 .group         0x0000000000000000        0x8 ./system/src/stm32f1-stdperiph/misc.o
 .group         0x0000000000000000        0x8 ./system/src/stm32f1-stdperiph/misc.o
 .group         0x0000000000000000        0x8 ./system/src/stm32f1-stdperiph/misc.o
 .group         0x0000000000000000        0x8 ./system/src/stm32f1-stdperiph/misc.o
 .group         0x0000000000000000        0x8 ./system/src/stm32f1-stdperiph/misc.o
 .group         0x0000000000000000        0x8 ./system/src/stm32f1-stdperiph/misc.o
 .group         0x0000000000000000        0x8 ./system/src/stm32f1-stdperiph/misc.o
 .group         0x0000000000000000        0x8 ./system/src/stm32f1-stdperiph/misc.o
 .group         0x0000000000000000        0x8 ./system/src/stm32f1-stdperiph/misc.o
 .group         0x0000000000000000        0x8 ./system/src/stm32f1-stdperiph/misc.o
 .group         0x0000000000000000        0x8 ./system/src/stm32f1-stdperiph/misc.o
 .group         0x0000000000000000        0x8 ./system/src/stm32f1-stdperiph/misc.o
 .group         0x0000000000000000        0x8 ./system/src/stm32f1-stdperiph/misc.o
 .group         0x0000000000000000        0x8 ./system/src/stm32f1-stdperiph/misc.o
 .group         0x0000000000000000        0x8 ./system/src/stm32f1-stdperiph/misc.o
 .group         0x0000000000000000        0x8 ./system/src/stm32f1-stdperiph/misc.o
 .group         0x0000000000000000        0x8 ./system/src/stm32f1-stdperiph/misc.o
Memory Configuration

Name             Origin             Length             Attributes
RAM              0x0000000020000000 0x0000000000005000 xrw
CCMRAM           0x0000000000000000 0x0000000000000000 xrw
FLASH            0x0000000008000000 0x0000000000020000 xr
FLASHB1          0x0000000000000000 0x0000000000000000 xr
EXTMEMB0         0x0000000000000000 0x0000000000000000 xr
EXTMEMB1         0x0000000000000000 0x0000000000000000 xr
EXTMEMB2         0x0000000000000000 0x0000000000000000 xr
EXTMEMB3         0x0000000000000000 0x0000000000000000 xr
MEMORY_ARRAY     0x0000000000000000 0x0000000000000000 xrw
*default*        0x0000000000000000 0xffffffffffffffff

Linker script and memory map

LOAD ./system/src/stm32f1-stdperiph/misc.o
LOAD ./system/src/stm32f1-stdperiph/stm32f10x_gpio.o
LOAD ./system/src/stm32f1-stdperiph/stm32f10x_rcc.o
LOAD ./system/src/newlib/_cxx.o
LOAD ./system/src/newlib/_exit.o
LOAD ./system/src/newlib/_sbrk.o
LOAD ./system/src/newlib/_startup.o
LOAD ./system/src/newlib/_syscalls.o
LOAD ./system/src/newlib/assert.o
LOAD ./system/src/diag/Trace.o
LOAD ./system/src/diag/trace_impl.o
LOAD ./system/src/cortexm/_initialize_hardware.o
LOAD ./system/src/cortexm/_reset_hardware.o
LOAD ./system/src/cortexm/exception_handlers.o
LOAD ./system/src/cmsis/system_stm32f10x.o
LOAD ./system/src/cmsis/vectors_stm32f10x.o
LOAD ./src/main.o
LOAD /Users/niall/gcc-arm-none-eabi-4_9-2014q4/bin/../lib/gcc/arm-none-eabi/4.9.3/../../../../arm-none-eabi/lib/armv7-m/libstdc++_nano.a
LOAD /Users/niall/gcc-arm-none-eabi-4_9-2014q4/bin/../lib/gcc/arm-none-eabi/4.9.3/../../../../arm-none-eabi/lib/armv7-m/libm.a
START GROUP
LOAD /Users/niall/gcc-arm-none-eabi-4_9-2014q4/bin/../lib/gcc/arm-none-eabi/4.9.3/armv7-m/libgcc.a
LOAD /Users/niall/gcc-arm-none-eabi-4_9-2014q4/bin/../lib/gcc/arm-none-eabi/4.9.3/../../../../arm-none-eabi/lib/armv7-m/libg_nano.a
LOAD /Users/niall/gcc-arm-none-eabi-4_9-2014q4/bin/../lib/gcc/arm-none-eabi/4.9.3/../../../../arm-none-eabi/lib/armv7-m/libc_nano.a
END GROUP
START GROUP
LOAD /Users/niall/gcc-arm-none-eabi-4_9-2014q4/bin/../lib/gcc/arm-none-eabi/4.9.3/armv7-m/libgcc.a
LOAD /Users/niall/gcc-arm-none-eabi-4_9-2014q4/bin/../lib/gcc/arm-none-eabi/4.9.3/../../../../arm-none-eabi/lib/armv7-m/libc_nano.a
END GROUP
                0x0000000020005000                __stack = (ORIGIN (RAM) + 0x5000)
                0x0000000020005000                _estack = __stack
                0x0000000000000400                __Main_Stack_Size = 0x400
                0x0000000000000400                PROVIDE (_Main_Stack_Size, __Main_Stack_Size)
                0x0000000020004c00                __Main_Stack_Limit = (__stack - __Main_Stack_Size)
                0x0000000020004c00                PROVIDE (_Main_Stack_Limit, __Main_Stack_Limit)
                0x0000000000000100                _Minimum_Stack_Size = 0x100
                0x00000000200001c8                PROVIDE (_Heap_Begin, _end_noinit)
                0x0000000020004c00                PROVIDE (_Heap_Limit, (__stack - __Main_Stack_Size))

.isr_vector     0x0000000008000000      0x250
                0x0000000008000000                . = ALIGN (0x4)
 *(.isr_vector)
 .isr_vector    0x0000000008000000      0x10c ./system/src/cmsis/vectors_stm32f10x.o
                0x0000000008000000                __isr_vectors
 *(.cfmconfig)
 *(.after_vectors .after_vectors.*)
 .after_vectors
                0x000000000800010c      0x114 ./system/src/newlib/_startup.o
                0x000000000800010c                _start
 .after_vectors
                0x0000000008000220       0x2c ./system/src/cortexm/exception_handlers.o
                0x0000000008000220                Reset_Handler
                0x0000000008000228                NMI_Handler
                0x000000000800022c                HardFault_Handler
                0x0000000008000230                MemManage_Handler
                0x0000000008000234                BusFault_Handler
                0x0000000008000238                UsageFault_Handler
                0x000000000800023c                SVC_Handler
                0x0000000008000240                DebugMon_Handler
                0x0000000008000244                PendSV_Handler
                0x0000000008000248                SysTick_Handler
 .after_vectors
                0x000000000800024c        0x4 ./system/src/cmsis/vectors_stm32f10x.o
                0x000000000800024c                TIM1_BRK_TIM15_IRQHandler
                0x000000000800024c                TIM8_TRG_COM_IRQHandler
                0x000000000800024c                TIM8_CC_IRQHandler
                0x000000000800024c                TIM1_CC_IRQHandler
                0x000000000800024c                TIM6_IRQHandler
                0x000000000800024c                PVD_IRQHandler
                0x000000000800024c                SDIO_IRQHandler
                0x000000000800024c                CAN2_RX1_IRQHandler
                0x000000000800024c                EXTI3_IRQHandler
                0x000000000800024c                TIM8_TRG_COM_TIM14_IRQHandler
                0x000000000800024c                TIM1_UP_TIM10_IRQHandler
                0x000000000800024c                TIM8_UP_TIM13_IRQHandler
                0x000000000800024c                EXTI0_IRQHandler
                0x000000000800024c                I2C2_EV_IRQHandler
                0x000000000800024c                CAN1_RX0_IRQHandler
                0x000000000800024c                TIM1_UP_TIM16_IRQHandler
                0x000000000800024c                CAN2_SCE_IRQHandler
                0x000000000800024c                ADC1_2_IRQHandler
                0x000000000800024c                SPI1_IRQHandler
                0x000000000800024c                TAMPER_IRQHandler
                0x000000000800024c                TIM6_DAC_IRQHandler
                0x000000000800024c                TIM1_BRK_TIM9_IRQHandler
                0x000000000800024c                CAN2_RX0_IRQHandler
                0x000000000800024c                TIM8_UP_IRQHandler
                0x000000000800024c                DMA2_Channel2_IRQHandler
                0x000000000800024c                DMA1_Channel4_IRQHandler
                0x000000000800024c                USART3_IRQHandler
                0x000000000800024c                RTC_IRQHandler
                0x000000000800024c                DMA1_Channel7_IRQHandler
                0x000000000800024c                CAN1_RX1_IRQHandler
                0x000000000800024c                UART5_IRQHandler
                0x000000000800024c                ADC3_IRQHandler
                0x000000000800024c                TIM4_IRQHandler
                0x000000000800024c                DMA2_Channel1_IRQHandler
                0x000000000800024c                I2C1_EV_IRQHandler
                0x000000000800024c                DMA1_Channel6_IRQHandler
                0x000000000800024c                UART4_IRQHandler
                0x000000000800024c                DMA2_Channel4_IRQHandler
                0x000000000800024c                TIM3_IRQHandler
                0x000000000800024c                RCC_IRQHandler
                0x000000000800024c                TIM8_BRK_TIM12_IRQHandler
                0x000000000800024c                TIM1_TRG_COM_IRQHandler
                0x000000000800024c                DMA1_Channel1_IRQHandler
                0x000000000800024c                Default_Handler
                0x000000000800024c                CEC_IRQHandler
                0x000000000800024c                EXTI15_10_IRQHandler
                0x000000000800024c                TIM14_IRQHandler
                0x000000000800024c                TIM13_IRQHandler
                0x000000000800024c                TIM12_IRQHandler
                0x000000000800024c                TIM7_IRQHandler
                0x000000000800024c                CAN2_TX_IRQHandler
                0x000000000800024c                TIM5_IRQHandler
                0x000000000800024c                EXTI9_5_IRQHandler
                0x000000000800024c                ETH_WKUP_IRQHandler
                0x000000000800024c                SPI2_IRQHandler
                0x000000000800024c                CAN1_TX_IRQHandler
                0x000000000800024c                DMA2_Channel5_IRQHandler
                0x000000000800024c                DMA1_Channel5_IRQHandler
                0x000000000800024c                EXTI4_IRQHandler
                0x000000000800024c                USB_LP_CAN1_RX0_IRQHandler
                0x000000000800024c                TIM1_TRG_COM_TIM17_IRQHandler
                0x000000000800024c                USB_HP_CAN1_TX_IRQHandler
                0x000000000800024c                DMA1_Channel3_IRQHandler
                0x000000000800024c                FSMC_IRQHandler
                0x000000000800024c                ETH_IRQHandler
                0x000000000800024c                TIM1_UP_IRQHandler
                0x000000000800024c                WWDG_IRQHandler
                0x000000000800024c                TIM2_IRQHandler
                0x000000000800024c                OTG_FS_WKUP_IRQHandler
                0x000000000800024c                TIM1_TRG_COM_TIM11_IRQHandler
                0x000000000800024c                TIM1_BRK_IRQHandler
                0x000000000800024c                EXTI1_IRQHandler
                0x000000000800024c                RTCAlarm_IRQHandler
                0x000000000800024c                DMA2_Channel4_5_IRQHandler
                0x000000000800024c                USART2_IRQHandler
                0x000000000800024c                I2C2_ER_IRQHandler
                0x000000000800024c                DMA1_Channel2_IRQHandler
                0x000000000800024c                TIM8_BRK_IRQHandler
                0x000000000800024c                CAN1_SCE_IRQHandler
                0x000000000800024c                FLASH_IRQHandler
                0x000000000800024c                USART1_IRQHandler
                0x000000000800024c                OTG_FS_IRQHandler
                0x000000000800024c                SPI3_IRQHandler
                0x000000000800024c                I2C1_ER_IRQHandler
                0x000000000800024c                USBWakeUp_IRQHandler
                0x000000000800024c                DMA2_Channel3_IRQHandler
                0x000000000800024c                EXTI2_IRQHandler
                0x0000000008000250                . = ALIGN (0x4)

.inits          0x0000000008000250        0x0
                0x0000000008000250                . = ALIGN (0x4)
 *(.init)
 *(.fini)
                0x0000000008000250                . = ALIGN (0x4)
                0x0000000008000250                PROVIDE (__preinit_array_start, .)
 *(.preinit_array_sysinit .preinit_array_sysinit.*)
 *(.preinit_array_platform .preinit_array_platform.*)
 *(.preinit_array .preinit_array.*)
                0x0000000008000250                PROVIDE (__preinit_array_end, .)
                0x0000000008000250                . = ALIGN (0x4)
                0x0000000008000250                PROVIDE (__init_array_start, .)
 *(SORT(.init_array.*))
 *(.init_array)
                0x0000000008000250                PROVIDE (__init_array_end, .)
                0x0000000008000250                . = ALIGN (0x4)
                0x0000000008000250                PROVIDE (__fini_array_start, .)
 *(SORT(.fini_array.*))
 *(.fini_array)
                0x0000000008000250                PROVIDE (__fini_array_end, .)
                0x0000000008000250                . = ALIGN (0x4)

.flashtext      0x0000000008000250        0x0
                0x0000000008000250                . = ALIGN (0x4)
 *(.flashtext .flashtext.*)
                0x0000000008000250                . = ALIGN (0x4)

.text           0x0000000008000250     0x1234
                0x0000000008000250                . = ALIGN (0x4)
 *(.text .text.*)
 .text._sbrk    0x0000000008000250       0x44 ./system/src/newlib/_sbrk.o
                0x0000000008000250                _sbrk
 .text.get_errno
                0x0000000008000294       0x14 ./system/src/newlib/_syscalls.o
 .text.error    0x00000000080002a8       0x14 ./system/src/newlib/_syscalls.o
 .text.checkerror
                0x00000000080002bc       0x10 ./system/src/newlib/_syscalls.o
 .text.findslot
                0x00000000080002cc       0x3c ./system/src/newlib/_syscalls.o
 .text._exit    0x0000000008000308       0x20 ./system/src/newlib/_syscalls.o
                0x0000000008000308                _exit
 .text.initialise_monitor_handles
                0x0000000008000328       0xa8 ./system/src/newlib/_syscalls.o
                0x0000000008000328                initialise_monitor_handles
 .text.__initialize_args
                0x00000000080003d0       0xd0 ./system/src/newlib/_syscalls.o
                0x00000000080003d0                __initialize_args
 .text._swiread
                0x00000000080004a0       0x20 ./system/src/newlib/_syscalls.o
                0x00000000080004a0                _swiread
 .text._read    0x00000000080004c0       0x38 ./system/src/newlib/_syscalls.o
                0x00000000080004c0                _read
 .text._swilseek
                0x00000000080004f8       0xbc ./system/src/newlib/_syscalls.o
                0x00000000080004f8                _swilseek
 .text._lseek   0x00000000080005b4        0x8 ./system/src/newlib/_syscalls.o
                0x00000000080005b4                _lseek
 .text._swiwrite
                0x00000000080005bc       0x20 ./system/src/newlib/_syscalls.o
                0x00000000080005bc                _swiwrite
 .text._write   0x00000000080005dc       0x44 ./system/src/newlib/_syscalls.o
                0x00000000080005dc                _write
 .text._swiclose
                0x0000000008000620       0x20 ./system/src/newlib/_syscalls.o
                0x0000000008000620                _swiclose
 .text._close   0x0000000008000640       0x4c ./system/src/newlib/_syscalls.o
                0x0000000008000640                _close
 .text._swistat
                0x000000000800068c       0x4c ./system/src/newlib/_syscalls.o
                0x000000000800068c                _swistat
 .text._fstat   0x00000000080006d8       0x1c ./system/src/newlib/_syscalls.o
                0x00000000080006d8                _fstat
 .text._isatty  0x00000000080006f4       0x38 ./system/src/newlib/_syscalls.o
                0x00000000080006f4                _isatty
 .text.__initialize_hardware_early
                0x000000000800072c        0x8 ./system/src/cortexm/_initialize_hardware.o
                0x000000000800072c                __initialize_hardware_early
 .text.__initialize_hardware
                0x0000000008000734        0x8 ./system/src/cortexm/_initialize_hardware.o
                0x0000000008000734                __initialize_hardware
 .text.SetSysClockTo72
                0x000000000800073c       0xc4 ./system/src/cmsis/system_stm32f10x.o
 .text.SetSysClock
                0x0000000008000800        0x8 ./system/src/cmsis/system_stm32f10x.o
 .text.SystemInit
                0x0000000008000808       0x50 ./system/src/cmsis/system_stm32f10x.o
                0x0000000008000808                SystemInit
 .text.SystemCoreClockUpdate
                0x0000000008000858       0x94 ./system/src/cmsis/system_stm32f10x.o
                0x0000000008000858                SystemCoreClockUpdate
 .text.wait     0x00000000080008ec       0x20 ./src/main.o
                0x00000000080008ec                wait
 .text.main     0x000000000800090c       0x5c ./src/main.o
                0x000000000800090c                main
 .text.__errno  0x0000000008000968        0xc /Users/niall/gcc-arm-none-eabi-4_9-2014q4/bin/../lib/gcc/arm-none-eabi/4.9.3/../../../../arm-none-eabi/lib/armv7-m/libg_nano.a(lib_a-errno.o)
                0x0000000008000968                __errno
 .text._cleanup_r
                0x0000000008000974        0xc /Users/niall/gcc-arm-none-eabi-4_9-2014q4/bin/../lib/gcc/arm-none-eabi/4.9.3/../../../../arm-none-eabi/lib/armv7-m/libg_nano.a(lib_a-findfp.o)
                0x0000000008000974                _cleanup_r
 .text.std.isra.0
                0x0000000008000980       0x48 /Users/niall/gcc-arm-none-eabi-4_9-2014q4/bin/../lib/gcc/arm-none-eabi/4.9.3/../../../../arm-none-eabi/lib/armv7-m/libg_nano.a(lib_a-findfp.o)
 .text.__sfmoreglue
                0x00000000080009c8       0x2c /Users/niall/gcc-arm-none-eabi-4_9-2014q4/bin/../lib/gcc/arm-none-eabi/4.9.3/../../../../arm-none-eabi/lib/armv7-m/libg_nano.a(lib_a-findfp.o)
                0x00000000080009c8                __sfmoreglue
 .text.__sinit  0x00000000080009f4       0x60 /Users/niall/gcc-arm-none-eabi-4_9-2014q4/bin/../lib/gcc/arm-none-eabi/4.9.3/../../../../arm-none-eabi/lib/armv7-m/libg_nano.a(lib_a-findfp.o)
                0x00000000080009f4                __sinit
 .text.__sfp    0x0000000008000a54       0x74 /Users/niall/gcc-arm-none-eabi-4_9-2014q4/bin/../lib/gcc/arm-none-eabi/4.9.3/../../../../arm-none-eabi/lib/armv7-m/libg_nano.a(lib_a-findfp.o)
                0x0000000008000a54                __sfp
 .text._fwalk_reent
                0x0000000008000ac8       0x3c /Users/niall/gcc-arm-none-eabi-4_9-2014q4/bin/../lib/gcc/arm-none-eabi/4.9.3/../../../../arm-none-eabi/lib/armv7-m/libg_nano.a(lib_a-fwalk.o)
                0x0000000008000ac8                _fwalk_reent
 .text._fwrite_r
                0x0000000008000b04       0xb4 /Users/niall/gcc-arm-none-eabi-4_9-2014q4/bin/../lib/gcc/arm-none-eabi/4.9.3/../../../../arm-none-eabi/lib/armv7-m/libg_nano.a(lib_a-fwrite.o)
                0x0000000008000b04                _fwrite_r
 .text.fwrite   0x0000000008000bb8       0x20 /Users/niall/gcc-arm-none-eabi-4_9-2014q4/bin/../lib/gcc/arm-none-eabi/4.9.3/../../../../arm-none-eabi/lib/armv7-m/libg_nano.a(lib_a-fwrite.o)
                0x0000000008000bb8                fwrite
 .text.memset   0x0000000008000bd8       0x10 /Users/niall/gcc-arm-none-eabi-4_9-2014q4/bin/../lib/gcc/arm-none-eabi/4.9.3/../../../../arm-none-eabi/lib/armv7-m/libg_nano.a(lib_a-memset.o)
                0x0000000008000bd8                memset
 .text._malloc_r
                0x0000000008000be8       0xac /Users/niall/gcc-arm-none-eabi-4_9-2014q4/bin/../lib/gcc/arm-none-eabi/4.9.3/../../../../arm-none-eabi/lib/armv7-m/libg_nano.a(lib_a-nano-mallocr.o)
                0x0000000008000be8                _malloc_r
 .text._puts_r  0x0000000008000c94       0xbc /Users/niall/gcc-arm-none-eabi-4_9-2014q4/bin/../lib/gcc/arm-none-eabi/4.9.3/../../../../arm-none-eabi/lib/armv7-m/libg_nano.a(lib_a-puts.o)
                0x0000000008000c94                _puts_r
 .text.puts     0x0000000008000d50       0x10 /Users/niall/gcc-arm-none-eabi-4_9-2014q4/bin/../lib/gcc/arm-none-eabi/4.9.3/../../../../arm-none-eabi/lib/armv7-m/libg_nano.a(lib_a-puts.o)
                0x0000000008000d50                puts
 .text._sbrk_r  0x0000000008000d60       0x20 /Users/niall/gcc-arm-none-eabi-4_9-2014q4/bin/../lib/gcc/arm-none-eabi/4.9.3/../../../../arm-none-eabi/lib/armv7-m/libg_nano.a(lib_a-sbrkr.o)
                0x0000000008000d60                _sbrk_r
 .text.__sread  0x0000000008000d80       0x22 /Users/niall/gcc-arm-none-eabi-4_9-2014q4/bin/../lib/gcc/arm-none-eabi/4.9.3/../../../../arm-none-eabi/lib/armv7-m/libg_nano.a(lib_a-stdio.o)
                0x0000000008000d80                __sread
 .text.__swrite
                0x0000000008000da2       0x38 /Users/niall/gcc-arm-none-eabi-4_9-2014q4/bin/../lib/gcc/arm-none-eabi/4.9.3/../../../../arm-none-eabi/lib/armv7-m/libg_nano.a(lib_a-stdio.o)
                0x0000000008000da2                __swrite
 .text.__sseek  0x0000000008000dda       0x24 /Users/niall/gcc-arm-none-eabi-4_9-2014q4/bin/../lib/gcc/arm-none-eabi/4.9.3/../../../../arm-none-eabi/lib/armv7-m/libg_nano.a(lib_a-stdio.o)
                0x0000000008000dda                __sseek
 .text.__sclose
                0x0000000008000dfe        0x8 /Users/niall/gcc-arm-none-eabi-4_9-2014q4/bin/../lib/gcc/arm-none-eabi/4.9.3/../../../../arm-none-eabi/lib/armv7-m/libg_nano.a(lib_a-stdio.o)
                0x0000000008000dfe                __sclose
 *fill*         0x0000000008000e06        0x2 
 .text.__swbuf_r
                0x0000000008000e08       0xa8 /Users/niall/gcc-arm-none-eabi-4_9-2014q4/bin/../lib/gcc/arm-none-eabi/4.9.3/../../../../arm-none-eabi/lib/armv7-m/libg_nano.a(lib_a-wbuf.o)
                0x0000000008000e08                __swbuf_r
 .text._write_r
                0x0000000008000eb0       0x24 /Users/niall/gcc-arm-none-eabi-4_9-2014q4/bin/../lib/gcc/arm-none-eabi/4.9.3/../../../../arm-none-eabi/lib/armv7-m/libg_nano.a(lib_a-writer.o)
                0x0000000008000eb0                _write_r
 .text.__swsetup_r
                0x0000000008000ed4       0xd8 /Users/niall/gcc-arm-none-eabi-4_9-2014q4/bin/../lib/gcc/arm-none-eabi/4.9.3/../../../../arm-none-eabi/lib/armv7-m/libg_nano.a(lib_a-wsetup.o)
                0x0000000008000ed4                __swsetup_r
 .text._close_r
                0x0000000008000fac       0x20 /Users/niall/gcc-arm-none-eabi-4_9-2014q4/bin/../lib/gcc/arm-none-eabi/4.9.3/../../../../arm-none-eabi/lib/armv7-m/libg_nano.a(lib_a-closer.o)
                0x0000000008000fac                _close_r
 .text.__sflush_r
                0x0000000008000fcc      0x106 /Users/niall/gcc-arm-none-eabi-4_9-2014q4/bin/../lib/gcc/arm-none-eabi/4.9.3/../../../../arm-none-eabi/lib/armv7-m/libg_nano.a(lib_a-fflush.o)
                0x0000000008000fcc                __sflush_r
 *fill*         0x00000000080010d2        0x2 
 .text._fflush_r
                0x00000000080010d4       0x54 /Users/niall/gcc-arm-none-eabi-4_9-2014q4/bin/../lib/gcc/arm-none-eabi/4.9.3/../../../../arm-none-eabi/lib/armv7-m/libg_nano.a(lib_a-fflush.o)
                0x00000000080010d4                _fflush_r
 .text._lseek_r
                0x0000000008001128       0x24 /Users/niall/gcc-arm-none-eabi-4_9-2014q4/bin/../lib/gcc/arm-none-eabi/4.9.3/../../../../arm-none-eabi/lib/armv7-m/libg_nano.a(lib_a-lseekr.o)
                0x0000000008001128                _lseek_r
 .text.__smakebuf_r
                0x000000000800114c       0x98 /Users/niall/gcc-arm-none-eabi-4_9-2014q4/bin/../lib/gcc/arm-none-eabi/4.9.3/../../../../arm-none-eabi/lib/armv7-m/libg_nano.a(lib_a-makebuf.o)
                0x000000000800114c                __smakebuf_r
 .text._free_r  0x00000000080011e4       0x88 /Users/niall/gcc-arm-none-eabi-4_9-2014q4/bin/../lib/gcc/arm-none-eabi/4.9.3/../../../../arm-none-eabi/lib/armv7-m/libg_nano.a(lib_a-nano-freer.o)
                0x00000000080011e4                _free_r
 .text._read_r  0x000000000800126c       0x24 /Users/niall/gcc-arm-none-eabi-4_9-2014q4/bin/../lib/gcc/arm-none-eabi/4.9.3/../../../../arm-none-eabi/lib/armv7-m/libg_nano.a(lib_a-readr.o)
                0x000000000800126c                _read_r
 .text._fstat_r
                0x0000000008001290       0x24 /Users/niall/gcc-arm-none-eabi-4_9-2014q4/bin/../lib/gcc/arm-none-eabi/4.9.3/../../../../arm-none-eabi/lib/armv7-m/libg_nano.a(lib_a-fstatr.o)
                0x0000000008001290                _fstat_r
 .text._isatty_r
                0x00000000080012b4       0x20 /Users/niall/gcc-arm-none-eabi-4_9-2014q4/bin/../lib/gcc/arm-none-eabi/4.9.3/../../../../arm-none-eabi/lib/armv7-m/libg_nano.a(lib_a-isattyr.o)
                0x00000000080012b4                _isatty_r
 *(.rodata .rodata.*)
 .rodata.str1.4
                0x00000000080012d4        0x9 ./system/src/newlib/_syscalls.o
                                          0xc (size before relaxing)
 *fill*         0x00000000080012dd        0x3 
 .rodata.str1.4
                0x00000000080012e0       0x38 ./src/main.o
 .rodata._ctype_
                0x0000000008001318      0x101 /Users/niall/gcc-arm-none-eabi-4_9-2014q4/bin/../lib/gcc/arm-none-eabi/4.9.3/../../../../arm-none-eabi/lib/armv7-m/libg_nano.a(lib_a-ctype_.o)
                0x0000000008001318                _ctype_
 *fill*         0x0000000008001419        0x3 
 .rodata.__sf_fake_stdin
                0x000000000800141c       0x20 /Users/niall/gcc-arm-none-eabi-4_9-2014q4/bin/../lib/gcc/arm-none-eabi/4.9.3/../../../../arm-none-eabi/lib/armv7-m/libg_nano.a(lib_a-findfp.o)
                0x000000000800141c                __sf_fake_stdin
 .rodata.__sf_fake_stdout
                0x000000000800143c       0x20 /Users/niall/gcc-arm-none-eabi-4_9-2014q4/bin/../lib/gcc/arm-none-eabi/4.9.3/../../../../arm-none-eabi/lib/armv7-m/libg_nano.a(lib_a-findfp.o)
                0x000000000800143c                __sf_fake_stdout
 .rodata.__sf_fake_stderr
                0x000000000800145c       0x20 /Users/niall/gcc-arm-none-eabi-4_9-2014q4/bin/../lib/gcc/arm-none-eabi/4.9.3/../../../../arm-none-eabi/lib/armv7-m/libg_nano.a(lib_a-findfp.o)
                0x000000000800145c                __sf_fake_stderr
 .rodata.str1.1
                0x000000000800147c        0x2 /Users/niall/gcc-arm-none-eabi-4_9-2014q4/bin/../lib/gcc/arm-none-eabi/4.9.3/../../../../arm-none-eabi/lib/armv7-m/libg_nano.a(lib_a-impure.o)
 *fill*         0x000000000800147e        0x2 
 .rodata._global_impure_ptr
                0x0000000008001480        0x4 /Users/niall/gcc-arm-none-eabi-4_9-2014q4/bin/../lib/gcc/arm-none-eabi/4.9.3/../../../../arm-none-eabi/lib/armv7-m/libg_nano.a(lib_a-impure.o)
                0x0000000008001480                _global_impure_ptr
 *(vtable)
 *(.eh_frame*)
 *(.glue_7)
 .glue_7        0x0000000000000000        0x0 linker stubs
 *(.glue_7t)
 .glue_7t       0x0000000000000000        0x0 linker stubs

.vfp11_veneer   0x0000000008001484        0x0
 .vfp11_veneer  0x0000000000000000        0x0 linker stubs

.v4_bx          0x0000000008001484        0x0
 .v4_bx         0x0000000000000000        0x0 linker stubs

.iplt           0x0000000008001484        0x0
 .iplt          0x0000000000000000        0x0 ./system/src/stm32f1-stdperiph/misc.o

.rel.dyn        0x0000000008001484        0x0
 .rel.iplt      0x0000000000000000        0x0 ./system/src/stm32f1-stdperiph/misc.o

.ARM.extab
 *(.ARM.extab* .gnu.linkonce.armextab.*)
                0x0000000008001484                __exidx_start = .

.ARM.exidx
 *(.ARM.exidx* .gnu.linkonce.armexidx.*)
                0x0000000008001484                __exidx_end = .
                0x0000000008001484                . = ALIGN (0x4)
                0x0000000008001484                _etext = .
                0x0000000008001484                __etext = .
                0x0000000008001484                _sidata = _etext

.data           0x0000000020000000       0x88 load address 0x0000000008001484
                0x0000000020000000                . = ALIGN (0x4)
                0x0000000020000000                _sdata = .
                0x0000000020000000                __data_start__ = .
 *(.data_begin .data_begin.*)
 .data_begin    0x0000000020000000        0x4 ./system/src/newlib/_startup.o
 *(.data .data.*)
 .data.AHBPrescTable
                0x0000000020000004       0x10 ./system/src/cmsis/system_stm32f10x.o
                0x0000000020000004                AHBPrescTable
 .data.SystemCoreClock
                0x0000000020000014        0x4 ./system/src/cmsis/system_stm32f10x.o
                0x0000000020000014                SystemCoreClock
 .data.portA    0x0000000020000018        0x4 ./src/main.o
                0x0000000020000018                portA
 .data.__ctype_ptr__
                0x000000002000001c        0x4 /Users/niall/gcc-arm-none-eabi-4_9-2014q4/bin/../lib/gcc/arm-none-eabi/4.9.3/../../../../arm-none-eabi/lib/armv7-m/libg_nano.a(lib_a-ctype_.o)
                0x000000002000001c                __ctype_ptr__
 .data.impure_data
                0x0000000020000020       0x60 /Users/niall/gcc-arm-none-eabi-4_9-2014q4/bin/../lib/gcc/arm-none-eabi/4.9.3/../../../../arm-none-eabi/lib/armv7-m/libg_nano.a(lib_a-impure.o)
 .data._impure_ptr
                0x0000000020000080        0x4 /Users/niall/gcc-arm-none-eabi-4_9-2014q4/bin/../lib/gcc/arm-none-eabi/4.9.3/../../../../arm-none-eabi/lib/armv7-m/libg_nano.a(lib_a-impure.o)
                0x0000000020000080                _impure_ptr
 *(.data_end .data_end.*)
 .data_end      0x0000000020000084        0x4 ./system/src/newlib/_startup.o
                0x0000000020000088                . = ALIGN (0x4)
                0x0000000020000088                _edata = .
                0x0000000020000088                __data_end__ = .

.igot.plt       0x0000000020000088        0x0 load address 0x000000000800150c
 .igot.plt      0x0000000000000000        0x0 ./system/src/stm32f1-stdperiph/misc.o

.bss            0x0000000020000088      0x140 load address 0x000000000800150c
                0x0000000020000088                . = ALIGN (0x4)
                0x0000000020000088                __bss_start__ = .
                0x0000000020000088                _sbss = .
 *(.bss_begin .bss_begin.*)
 .bss_begin     0x0000000020000088        0x4 ./system/src/newlib/_startup.o
 *(.bss .bss.*)
 .bss.current_heap_end.4304
                0x000000002000008c        0x4 ./system/src/newlib/_sbrk.o
 .bss.monitor_stdout
                0x0000000020000090        0x4 ./system/src/newlib/_syscalls.o
 .bss.argv_buf.5883
                0x0000000020000094       0x28 ./system/src/newlib/_syscalls.o
 .bss.monitor_stdin
                0x00000000200000bc        0x4 ./system/src/newlib/_syscalls.o
 .bss.monitor_stderr
                0x00000000200000c0        0x4 ./system/src/newlib/_syscalls.o
 .bss.args_buf.5882
                0x00000000200000c4       0x50 ./system/src/newlib/_syscalls.o
 .bss.openfiles
                0x0000000020000114       0xa0 ./system/src/newlib/_syscalls.o
 .bss.i         0x00000000200001b4        0x4 ./src/main.o
                0x00000000200001b4                i
 .bss.__malloc_sbrk_start
                0x00000000200001b8        0x4 /Users/niall/gcc-arm-none-eabi-4_9-2014q4/bin/../lib/gcc/arm-none-eabi/4.9.3/../../../../arm-none-eabi/lib/armv7-m/libg_nano.a(lib_a-nano-mallocr.o)
                0x00000000200001b8                __malloc_sbrk_start
 .bss.__malloc_free_list
                0x00000000200001bc        0x4 /Users/niall/gcc-arm-none-eabi-4_9-2014q4/bin/../lib/gcc/arm-none-eabi/4.9.3/../../../../arm-none-eabi/lib/armv7-m/libg_nano.a(lib_a-nano-mallocr.o)
                0x00000000200001bc                __malloc_free_list
 *(COMMON)
 COMMON         0x00000000200001c0        0x4 ./system/src/newlib/_syscalls.o
                0x00000000200001c0                errno
 *(.bss_end .bss_end.*)
 .bss_end       0x00000000200001c4        0x4 ./system/src/newlib/_startup.o
                0x00000000200001c8                . = ALIGN (0x4)
                0x00000000200001c8                __bss_end__ = .
                0x00000000200001c8                _ebss = .

.noinit         0x00000000200001c8        0x0
                0x00000000200001c8                . = ALIGN (0x4)
                0x00000000200001c8                _noinit = .
 *(.noinit .noinit.*)
                0x00000000200001c8                . = ALIGN (0x4)
                0x00000000200001c8                _end_noinit = .
                0x00000000200001c8                PROVIDE (end, _end_noinit)
                0x00000000200001c8                PROVIDE (_end, _end_noinit)
                0x00000000200001c8                PROVIDE (__end, _end_noinit)
                0x00000000200001c8                PROVIDE (__end__, _end_noinit)

._check_stack   0x00000000200001c8      0x100 load address 0x000000000800164c
                0x00000000200001c8                . = ALIGN (0x4)
                0x00000000200002c8                . = (. + _Minimum_Stack_Size)
 *fill*         0x00000000200001c8      0x100 
                0x00000000200002c8                . = ALIGN (0x4)

.bss_CCMRAM
 *(.bss.CCMRAM .bss.CCMRAM.*)

.b1text
 *(.b1text)
 *(.b1rodata)
 *(.b1rodata.*)

.eb0text
 *(.eb0text)
 *(.eb0rodata)
 *(.eb0rodata.*)

.eb1text
 *(.eb1text)
 *(.eb1rodata)
 *(.eb1rodata.*)

.eb2text
 *(.eb2text)
 *(.eb2rodata)
 *(.eb2rodata.*)

.eb3text
 *(.eb3text)
 *(.eb3rodata)
 *(.eb3rodata.*)

.stab
 *(.stab)

.stabstr
 *(.stabstr)

.stab.excl
 *(.stab.excl)

.stab.exclstr
 *(.stab.exclstr)

.stab.index
 *(.stab.index)

.stab.indexstr
 *(.stab.indexstr)

.comment        0x0000000000000000       0x70
 *(.comment)
 .comment       0x0000000000000000       0x70 ./system/src/newlib/_sbrk.o
                                         0x71 (size before relaxing)
 .comment       0x0000000000000000       0x71 ./system/src/newlib/_startup.o
 .comment       0x0000000000000000       0x71 ./system/src/newlib/_syscalls.o
 .comment       0x0000000000000000       0x71 ./system/src/cortexm/_initialize_hardware.o
 .comment       0x0000000000000000       0x71 ./system/src/cortexm/exception_handlers.o
 .comment       0x0000000000000000       0x71 ./system/src/cmsis/system_stm32f10x.o
 .comment       0x0000000000000000       0x71 ./system/src/cmsis/vectors_stm32f10x.o
 .comment       0x0000000000000000       0x71 ./src/main.o

.ARM.attributes
                0x0000000000000000       0x33
 .ARM.attributes
                0x0000000000000000       0x33 ./system/src/newlib/_sbrk.o
 .ARM.attributes
                0x0000000000000033       0x33 ./system/src/newlib/_startup.o
 .ARM.attributes
                0x0000000000000066       0x33 ./system/src/newlib/_syscalls.o
 .ARM.attributes
                0x0000000000000099       0x33 ./system/src/cortexm/_initialize_hardware.o
 .ARM.attributes
                0x00000000000000cc       0x33 ./system/src/cortexm/exception_handlers.o
 .ARM.attributes
                0x00000000000000ff       0x33 ./system/src/cmsis/system_stm32f10x.o
 .ARM.attributes
                0x0000000000000132       0x33 ./system/src/cmsis/vectors_stm32f10x.o
 .ARM.attributes
                0x0000000000000165       0x33 ./src/main.o
 .ARM.attributes
                0x0000000000000198       0x2d /Users/niall/gcc-arm-none-eabi-4_9-2014q4/bin/../lib/gcc/arm-none-eabi/4.9.3/../../../../arm-none-eabi/lib/armv7-m/libg_nano.a(lib_a-ctype_.o)
 .ARM.attributes
                0x00000000000001c5       0x2d /Users/niall/gcc-arm-none-eabi-4_9-2014q4/bin/../lib/gcc/arm-none-eabi/4.9.3/../../../../arm-none-eabi/lib/armv7-m/libg_nano.a(lib_a-errno.o)
 .ARM.attributes
                0x00000000000001f2       0x2d /Users/niall/gcc-arm-none-eabi-4_9-2014q4/bin/../lib/gcc/arm-none-eabi/4.9.3/../../../../arm-none-eabi/lib/armv7-m/libg_nano.a(lib_a-findfp.o)
 .ARM.attributes
                0x000000000000021f       0x2d /Users/niall/gcc-arm-none-eabi-4_9-2014q4/bin/../lib/gcc/arm-none-eabi/4.9.3/../../../../arm-none-eabi/lib/armv7-m/libg_nano.a(lib_a-fwalk.o)
 .ARM.attributes
                0x000000000000024c       0x2d /Users/niall/gcc-arm-none-eabi-4_9-2014q4/bin/../lib/gcc/arm-none-eabi/4.9.3/../../../../arm-none-eabi/lib/armv7-m/libg_nano.a(lib_a-fwrite.o)
 .ARM.attributes
                0x0000000000000279       0x2d /Users/niall/gcc-arm-none-eabi-4_9-2014q4/bin/../lib/gcc/arm-none-eabi/4.9.3/../../../../arm-none-eabi/lib/armv7-m/libg_nano.a(lib_a-impure.o)
 .ARM.attributes
                0x00000000000002a6       0x2d /Users/niall/gcc-arm-none-eabi-4_9-2014q4/bin/../lib/gcc/arm-none-eabi/4.9.3/../../../../arm-none-eabi/lib/armv7-m/libg_nano.a(lib_a-memset.o)
 .ARM.attributes
                0x00000000000002d3       0x2d /Users/niall/gcc-arm-none-eabi-4_9-2014q4/bin/../lib/gcc/arm-none-eabi/4.9.3/../../../../arm-none-eabi/lib/armv7-m/libg_nano.a(lib_a-nano-mallocr.o)
 .ARM.attributes
                0x0000000000000300       0x2d /Users/niall/gcc-arm-none-eabi-4_9-2014q4/bin/../lib/gcc/arm-none-eabi/4.9.3/../../../../arm-none-eabi/lib/armv7-m/libg_nano.a(lib_a-puts.o)
 .ARM.attributes
                0x000000000000032d       0x2d /Users/niall/gcc-arm-none-eabi-4_9-2014q4/bin/../lib/gcc/arm-none-eabi/4.9.3/../../../../arm-none-eabi/lib/armv7-m/libg_nano.a(lib_a-sbrkr.o)
 .ARM.attributes
                0x000000000000035a       0x2d /Users/niall/gcc-arm-none-eabi-4_9-2014q4/bin/../lib/gcc/arm-none-eabi/4.9.3/../../../../arm-none-eabi/lib/armv7-m/libg_nano.a(lib_a-stdio.o)
 .ARM.attributes
                0x0000000000000387       0x2d /Users/niall/gcc-arm-none-eabi-4_9-2014q4/bin/../lib/gcc/arm-none-eabi/4.9.3/../../../../arm-none-eabi/lib/armv7-m/libg_nano.a(lib_a-wbuf.o)
 .ARM.attributes
                0x00000000000003b4       0x2d /Users/niall/gcc-arm-none-eabi-4_9-2014q4/bin/../lib/gcc/arm-none-eabi/4.9.3/../../../../arm-none-eabi/lib/armv7-m/libg_nano.a(lib_a-writer.o)
 .ARM.attributes
                0x00000000000003e1       0x2d /Users/niall/gcc-arm-none-eabi-4_9-2014q4/bin/../lib/gcc/arm-none-eabi/4.9.3/../../../../arm-none-eabi/lib/armv7-m/libg_nano.a(lib_a-wsetup.o)
 .ARM.attributes
                0x000000000000040e       0x2d /Users/niall/gcc-arm-none-eabi-4_9-2014q4/bin/../lib/gcc/arm-none-eabi/4.9.3/../../../../arm-none-eabi/lib/armv7-m/libg_nano.a(lib_a-closer.o)
 .ARM.attributes
                0x000000000000043b       0x2d /Users/niall/gcc-arm-none-eabi-4_9-2014q4/bin/../lib/gcc/arm-none-eabi/4.9.3/../../../../arm-none-eabi/lib/armv7-m/libg_nano.a(lib_a-fflush.o)
 .ARM.attributes
                0x0000000000000468       0x2d /Users/niall/gcc-arm-none-eabi-4_9-2014q4/bin/../lib/gcc/arm-none-eabi/4.9.3/../../../../arm-none-eabi/lib/armv7-m/libg_nano.a(lib_a-lseekr.o)
 .ARM.attributes
                0x0000000000000495       0x2d /Users/niall/gcc-arm-none-eabi-4_9-2014q4/bin/../lib/gcc/arm-none-eabi/4.9.3/../../../../arm-none-eabi/lib/armv7-m/libg_nano.a(lib_a-makebuf.o)
 .ARM.attributes
                0x00000000000004c2       0x2d /Users/niall/gcc-arm-none-eabi-4_9-2014q4/bin/../lib/gcc/arm-none-eabi/4.9.3/../../../../arm-none-eabi/lib/armv7-m/libg_nano.a(lib_a-nano-freer.o)
 .ARM.attributes
                0x00000000000004ef       0x2d /Users/niall/gcc-arm-none-eabi-4_9-2014q4/bin/../lib/gcc/arm-none-eabi/4.9.3/../../../../arm-none-eabi/lib/armv7-m/libg_nano.a(lib_a-readr.o)
 .ARM.attributes
                0x000000000000051c       0x2d /Users/niall/gcc-arm-none-eabi-4_9-2014q4/bin/../lib/gcc/arm-none-eabi/4.9.3/../../../../arm-none-eabi/lib/armv7-m/libg_nano.a(lib_a-fstatr.o)
 .ARM.attributes
                0x0000000000000549       0x2d /Users/niall/gcc-arm-none-eabi-4_9-2014q4/bin/../lib/gcc/arm-none-eabi/4.9.3/../../../../arm-none-eabi/lib/armv7-m/libg_nano.a(lib_a-isattyr.o)

.debug
 *(.debug)

.line
 *(.line)

.debug_srcinfo
 *(.debug_srcinfo)

.debug_sfnames
 *(.debug_sfnames)

.debug_aranges  0x0000000000000000      0x290
 *(.debug_aranges)
 .debug_aranges
                0x0000000000000000       0x20 ./system/src/newlib/_sbrk.o
 .debug_aranges
                0x0000000000000020       0x40 ./system/src/newlib/_startup.o
 .debug_aranges
                0x0000000000000060      0x120 ./system/src/newlib/_syscalls.o
 .debug_aranges
                0x0000000000000180       0x28 ./system/src/cortexm/_initialize_hardware.o
 .debug_aranges
                0x00000000000001a8       0x68 ./system/src/cortexm/exception_handlers.o
 .debug_aranges
                0x0000000000000210       0x38 ./system/src/cmsis/system_stm32f10x.o
 .debug_aranges
                0x0000000000000248       0x20 ./system/src/cmsis/vectors_stm32f10x.o
 .debug_aranges
                0x0000000000000268       0x28 ./src/main.o

.debug_pubnames
 *(.debug_pubnames)

.debug_info     0x0000000000000000     0x357e
 *(.debug_info .gnu.linkonce.wi.*)
 .debug_info    0x0000000000000000      0x125 ./system/src/newlib/_sbrk.o
 .debug_info    0x0000000000000125      0x47f ./system/src/newlib/_startup.o
 .debug_info    0x00000000000005a4     0x1ed9 ./system/src/newlib/_syscalls.o
 .debug_info    0x000000000000247d       0xea ./system/src/cortexm/_initialize_hardware.o
 .debug_info    0x0000000000002567       0xe9 ./system/src/cortexm/exception_handlers.o
 .debug_info    0x0000000000002650      0x4a0 ./system/src/cmsis/system_stm32f10x.o
 .debug_info    0x0000000000002af0       0x92 ./system/src/cmsis/vectors_stm32f10x.o
 .debug_info    0x0000000000002b82      0x9fc ./src/main.o

.debug_abbrev   0x0000000000000000      0xc0f
 *(.debug_abbrev)
 .debug_abbrev  0x0000000000000000       0xbb ./system/src/newlib/_sbrk.o
 .debug_abbrev  0x00000000000000bb      0x1e9 ./system/src/newlib/_startup.o
 .debug_abbrev  0x00000000000002a4      0x451 ./system/src/newlib/_syscalls.o
 .debug_abbrev  0x00000000000006f5       0x88 ./system/src/cortexm/_initialize_hardware.o
 .debug_abbrev  0x000000000000077d       0x65 ./system/src/cortexm/exception_handlers.o
 .debug_abbrev  0x00000000000007e2      0x157 ./system/src/cmsis/system_stm32f10x.o
 .debug_abbrev  0x0000000000000939       0x92 ./system/src/cmsis/vectors_stm32f10x.o
 .debug_abbrev  0x00000000000009cb      0x244 ./src/main.o

.debug_line     0x0000000000000000     0x19bb
 *(.debug_line)
 .debug_line    0x0000000000000000      0x228 ./system/src/newlib/_sbrk.o
 .debug_line    0x0000000000000228      0x2ef ./system/src/newlib/_startup.o
 .debug_line    0x0000000000000517      0x7c0 ./system/src/newlib/_syscalls.o
 .debug_line    0x0000000000000cd7      0x44b ./system/src/cortexm/_initialize_hardware.o
 .debug_line    0x0000000000001122       0xbf ./system/src/cortexm/exception_handlers.o
 .debug_line    0x00000000000011e1      0x4ac ./system/src/cmsis/system_stm32f10x.o
 .debug_line    0x000000000000168d       0x8e ./system/src/cmsis/vectors_stm32f10x.o
 .debug_line    0x000000000000171b      0x2a0 ./src/main.o

.debug_frame    0x0000000000000000      0xb84
 *(.debug_frame)
 .debug_frame   0x0000000000000000       0x28 ./system/src/newlib/_sbrk.o
 .debug_frame   0x0000000000000028       0x7c ./system/src/newlib/_startup.o
 .debug_frame   0x00000000000000a4      0x3d0 ./system/src/newlib/_syscalls.o
 .debug_frame   0x0000000000000474       0x40 ./system/src/cortexm/_initialize_hardware.o
 .debug_frame   0x00000000000004b4       0xb8 ./system/src/cortexm/exception_handlers.o
 .debug_frame   0x000000000000056c       0x68 ./system/src/cmsis/system_stm32f10x.o
 .debug_frame   0x00000000000005d4       0x20 ./system/src/cmsis/vectors_stm32f10x.o
 .debug_frame   0x00000000000005f4       0x38 ./src/main.o
 .debug_frame   0x000000000000062c       0x20 /Users/niall/gcc-arm-none-eabi-4_9-2014q4/bin/../lib/gcc/arm-none-eabi/4.9.3/../../../../arm-none-eabi/lib/armv7-m/libg_nano.a(lib_a-errno.o)
 .debug_frame   0x000000000000064c      0x11c /Users/niall/gcc-arm-none-eabi-4_9-2014q4/bin/../lib/gcc/arm-none-eabi/4.9.3/../../../../arm-none-eabi/lib/armv7-m/libg_nano.a(lib_a-findfp.o)
 .debug_frame   0x0000000000000768       0x54 /Users/niall/gcc-arm-none-eabi-4_9-2014q4/bin/../lib/gcc/arm-none-eabi/4.9.3/../../../../arm-none-eabi/lib/armv7-m/libg_nano.a(lib_a-fwalk.o)
 .debug_frame   0x00000000000007bc       0x54 /Users/niall/gcc-arm-none-eabi-4_9-2014q4/bin/../lib/gcc/arm-none-eabi/4.9.3/../../../../arm-none-eabi/lib/armv7-m/libg_nano.a(lib_a-fwrite.o)
 .debug_frame   0x0000000000000810       0x20 /Users/niall/gcc-arm-none-eabi-4_9-2014q4/bin/../lib/gcc/arm-none-eabi/4.9.3/../../../../arm-none-eabi/lib/armv7-m/libg_nano.a(lib_a-memset.o)
 .debug_frame   0x0000000000000830       0x2c /Users/niall/gcc-arm-none-eabi-4_9-2014q4/bin/../lib/gcc/arm-none-eabi/4.9.3/../../../../arm-none-eabi/lib/armv7-m/libg_nano.a(lib_a-nano-mallocr.o)
 .debug_frame   0x000000000000085c       0x3c /Users/niall/gcc-arm-none-eabi-4_9-2014q4/bin/../lib/gcc/arm-none-eabi/4.9.3/../../../../arm-none-eabi/lib/armv7-m/libg_nano.a(lib_a-puts.o)
 .debug_frame   0x0000000000000898       0x2c /Users/niall/gcc-arm-none-eabi-4_9-2014q4/bin/../lib/gcc/arm-none-eabi/4.9.3/../../../../arm-none-eabi/lib/armv7-m/libg_nano.a(lib_a-sbrkr.o)
 .debug_frame   0x00000000000008c4       0x88 /Users/niall/gcc-arm-none-eabi-4_9-2014q4/bin/../lib/gcc/arm-none-eabi/4.9.3/../../../../arm-none-eabi/lib/armv7-m/libg_nano.a(lib_a-stdio.o)
 .debug_frame   0x000000000000094c       0x3c /Users/niall/gcc-arm-none-eabi-4_9-2014q4/bin/../lib/gcc/arm-none-eabi/4.9.3/../../../../arm-none-eabi/lib/armv7-m/libg_nano.a(lib_a-wbuf.o)
 .debug_frame   0x0000000000000988       0x2c /Users/niall/gcc-arm-none-eabi-4_9-2014q4/bin/../lib/gcc/arm-none-eabi/4.9.3/../../../../arm-none-eabi/lib/armv7-m/libg_nano.a(lib_a-writer.o)
 .debug_frame   0x00000000000009b4       0x2c /Users/niall/gcc-arm-none-eabi-4_9-2014q4/bin/../lib/gcc/arm-none-eabi/4.9.3/../../../../arm-none-eabi/lib/armv7-m/libg_nano.a(lib_a-wsetup.o)
 .debug_frame   0x00000000000009e0       0x2c /Users/niall/gcc-arm-none-eabi-4_9-2014q4/bin/../lib/gcc/arm-none-eabi/4.9.3/../../../../arm-none-eabi/lib/armv7-m/libg_nano.a(lib_a-closer.o)
 .debug_frame   0x0000000000000a0c       0x68 /Users/niall/gcc-arm-none-eabi-4_9-2014q4/bin/../lib/gcc/arm-none-eabi/4.9.3/../../../../arm-none-eabi/lib/armv7-m/libg_nano.a(lib_a-fflush.o)
 .debug_frame   0x0000000000000a74       0x2c /Users/niall/gcc-arm-none-eabi-4_9-2014q4/bin/../lib/gcc/arm-none-eabi/4.9.3/../../../../arm-none-eabi/lib/armv7-m/libg_nano.a(lib_a-lseekr.o)
 .debug_frame   0x0000000000000aa0       0x34 /Users/niall/gcc-arm-none-eabi-4_9-2014q4/bin/../lib/gcc/arm-none-eabi/4.9.3/../../../../arm-none-eabi/lib/armv7-m/libg_nano.a(lib_a-makebuf.o)
 .debug_frame   0x0000000000000ad4       0x2c /Users/niall/gcc-arm-none-eabi-4_9-2014q4/bin/../lib/gcc/arm-none-eabi/4.9.3/../../../../arm-none-eabi/lib/armv7-m/libg_nano.a(lib_a-nano-freer.o)
 .debug_frame   0x0000000000000b00       0x2c /Users/niall/gcc-arm-none-eabi-4_9-2014q4/bin/../lib/gcc/arm-none-eabi/4.9.3/../../../../arm-none-eabi/lib/armv7-m/libg_nano.a(lib_a-readr.o)
 .debug_frame   0x0000000000000b2c       0x2c /Users/niall/gcc-arm-none-eabi-4_9-2014q4/bin/../lib/gcc/arm-none-eabi/4.9.3/../../../../arm-none-eabi/lib/armv7-m/libg_nano.a(lib_a-fstatr.o)
 .debug_frame   0x0000000000000b58       0x2c /Users/niall/gcc-arm-none-eabi-4_9-2014q4/bin/../lib/gcc/arm-none-eabi/4.9.3/../../../../arm-none-eabi/lib/armv7-m/libg_nano.a(lib_a-isattyr.o)

.debug_str      0x0000000000000000    0x5417a
 *(.debug_str)
 .debug_str     0x0000000000000000     0x4443 ./system/src/newlib/_sbrk.o
                                       0x4553 (size before relaxing)
 .debug_str     0x0000000000004443      0xa9c ./system/src/newlib/_startup.o
                                       0x3fed (size before relaxing)
 .debug_str     0x0000000000004edf     0x3ff7 ./system/src/newlib/_syscalls.o
                                       0x8eb2 (size before relaxing)
 .debug_str     0x0000000000008ed6    0x4af54 ./system/src/cortexm/_initialize_hardware.o
                                      0x4df97 (size before relaxing)
 .debug_str     0x0000000000053e2a       0xe8 ./system/src/cortexm/exception_handlers.o
                                       0x25d9 (size before relaxing)
 .debug_str     0x0000000000053f12      0x197 ./system/src/cmsis/system_stm32f10x.o
                                      0x4e0e0 (size before relaxing)
 .debug_str     0x00000000000540a9       0x57 ./system/src/cmsis/vectors_stm32f10x.o
                                       0x2576 (size before relaxing)
 .debug_str     0x0000000000054100       0x7a ./src/main.o
                                       0x6395 (size before relaxing)

.debug_loc      0x0000000000000000     0x13ef
 *(.debug_loc)
 .debug_loc     0x0000000000000000       0x82 ./system/src/newlib/_sbrk.o
 .debug_loc     0x0000000000000082      0x265 ./system/src/newlib/_startup.o
 .debug_loc     0x00000000000002e7     0x1005 ./system/src/newlib/_syscalls.o
 .debug_loc     0x00000000000012ec       0xe4 ./system/src/cmsis/system_stm32f10x.o
 .debug_loc     0x00000000000013d0       0x1f ./src/main.o

.debug_macinfo
 *(.debug_macinfo)

.debug_weaknames
 *(.debug_weaknames)

.debug_funcnames
 *(.debug_funcnames)

.debug_typenames
 *(.debug_typenames)

.debug_varnames
 *(.debug_varnames)
OUTPUT(t2.elf elf32-littlearm)

.debug_ranges   0x0000000000000000      0x258
 .debug_ranges  0x0000000000000000       0x10 ./system/src/newlib/_sbrk.o
 .debug_ranges  0x0000000000000010       0x48 ./system/src/newlib/_startup.o
 .debug_ranges  0x0000000000000058      0x140 ./system/src/newlib/_syscalls.o
 .debug_ranges  0x0000000000000198       0x18 ./system/src/cortexm/_initialize_hardware.o
 .debug_ranges  0x00000000000001b0       0x58 ./system/src/cortexm/exception_handlers.o
 .debug_ranges  0x0000000000000208       0x28 ./system/src/cmsis/system_stm32f10x.o
 .debug_ranges  0x0000000000000230       0x10 ./system/src/cmsis/vectors_stm32f10x.o
 .debug_ranges  0x0000000000000240       0x18 ./src/main.o

.debug_macro    0x0000000000000000     0x162d
 .debug_macro   0x0000000000000000       0xd1 ./system/src/newlib/_sbrk.o
 .debug_macro   0x00000000000000d1       0x19 ./system/src/newlib/_sbrk.o
 .debug_macro   0x00000000000000ea      0x16d ./system/src/newlib/_sbrk.o
 .debug_macro   0x0000000000000257       0x10 ./system/src/newlib/_sbrk.o
 .debug_macro   0x0000000000000267      0x23b ./system/src/newlib/_sbrk.o
 .debug_macro   0x00000000000004a2       0xf0 ./system/src/newlib/_startup.o
 .debug_macro   0x0000000000000592      0x239 ./system/src/newlib/_syscalls.o
 .debug_macro   0x00000000000007cb       0x10 ./system/src/newlib/_syscalls.o
 .debug_macro   0x00000000000007db       0x10 ./system/src/newlib/_syscalls.o
 .debug_macro   0x00000000000007eb       0x10 ./system/src/newlib/_syscalls.o
 .debug_macro   0x00000000000007fb       0x35 ./system/src/newlib/_syscalls.o
 .debug_macro   0x0000000000000830      0x121 ./system/src/newlib/_syscalls.o
 .debug_macro   0x0000000000000951      0x1cd ./system/src/newlib/_syscalls.o
 .debug_macro   0x0000000000000b1e       0x10 ./system/src/newlib/_syscalls.o
 .debug_macro   0x0000000000000b2e       0x1c ./system/src/newlib/_syscalls.o
 .debug_macro   0x0000000000000b4a       0x10 ./system/src/newlib/_syscalls.o
 .debug_macro   0x0000000000000b5a       0x16 ./system/src/newlib/_syscalls.o
 .debug_macro   0x0000000000000b70      0x16d ./system/src/newlib/_syscalls.o
 .debug_macro   0x0000000000000cdd       0x16 ./system/src/newlib/_syscalls.o
 .debug_macro   0x0000000000000cf3       0x22 ./system/src/newlib/_syscalls.o
 .debug_macro   0x0000000000000d15      0x241 ./system/src/newlib/_syscalls.o
 .debug_macro   0x0000000000000f56       0x16 ./system/src/newlib/_syscalls.o
 .debug_macro   0x0000000000000f6c       0x3a ./system/src/newlib/_syscalls.o
 .debug_macro   0x0000000000000fa6       0xac ./system/src/newlib/_syscalls.o
 .debug_macro   0x0000000000001052      0x13e ./system/src/newlib/_syscalls.o
 .debug_macro   0x0000000000001190       0x16 ./system/src/newlib/_syscalls.o
 .debug_macro   0x00000000000011a6       0x22 ./system/src/newlib/_syscalls.o
 .debug_macro   0x00000000000011c8      0x183 ./system/src/cortexm/_initialize_hardware.o
 .debug_macro   0x000000000000134b       0x1b ./system/src/cortexm/exception_handlers.o
 .debug_macro   0x0000000000001366      0x186 ./system/src/cmsis/system_stm32f10x.o
 .debug_macro   0x00000000000014ec       0x1b ./system/src/cmsis/vectors_stm32f10x.o
 .debug_macro   0x0000000000001507      0x126 ./src/main.o
